{
  "contractName": "Weights",
  "abi": [
    {
      "inputs": [],
      "stateMutability": "nonpayable",
      "type": "constructor"
    },
    {
      "inputs": [],
      "name": "makePayment",
      "outputs": [],
      "stateMutability": "payable",
      "type": "function"
    },
    {
      "inputs": [],
      "name": "getBalance",
      "outputs": [
        {
          "internalType": "uint256",
          "name": "",
          "type": "uint256"
        }
      ],
      "stateMutability": "view",
      "type": "function"
    },
    {
      "inputs": [
        {
          "internalType": "uint256",
          "name": "_ownerWeight",
          "type": "uint256"
        },
        {
          "internalType": "uint256",
          "name": "_futureWeight",
          "type": "uint256"
        }
      ],
      "name": "setWeight",
      "outputs": [],
      "stateMutability": "nonpayable",
      "type": "function"
    },
    {
      "inputs": [
        {
          "internalType": "uint256",
          "name": "_weight",
          "type": "uint256"
        }
      ],
      "name": "pushWeight",
      "outputs": [],
      "stateMutability": "nonpayable",
      "type": "function"
    },
    {
      "inputs": [],
      "name": "getLastWeight",
      "outputs": [
        {
          "internalType": "uint256",
          "name": "",
          "type": "uint256"
        }
      ],
      "stateMutability": "view",
      "type": "function"
    },
    {
      "inputs": [],
      "name": "getFutureWeight",
      "outputs": [
        {
          "internalType": "uint256",
          "name": "",
          "type": "uint256"
        }
      ],
      "stateMutability": "view",
      "type": "function"
    },
    {
      "inputs": [],
      "name": "getLastWritedWeight",
      "outputs": [
        {
          "internalType": "uint256[]",
          "name": "",
          "type": "uint256[]"
        }
      ],
      "stateMutability": "view",
      "type": "function"
    },
    {
      "inputs": [
        {
          "internalType": "address payable",
          "name": "payableAddress",
          "type": "address"
        }
      ],
      "name": "checkWeight",
      "outputs": [],
      "stateMutability": "nonpayable",
      "type": "function"
    }
  ],
  "bytecode": "0x608060405234801561001057600080fd5b50336000806101000a81548173ffffffffffffffffffffffffffffffffffffffff021916908373ffffffffffffffffffffffffffffffffffffffff160217905550610846806100606000396000f3fe60806040526004361061007b5760003560e01c80639002bd8b1161004e5780639002bd8b1461012a5780639ae0f5d014610153578063d8d797001461017c578063f6fc6235146101865761007b565b806312065fe01461008057806328c3d0bd146100ab57806373d3bccd146100d6578063864ad65914610101575b600080fd5b34801561008c57600080fd5b506100956101b1565b6040516100a29190610546565b60405180910390f35b3480156100b757600080fd5b506100c06101b9565b6040516100cd9190610546565b60405180910390f35b3480156100e257600080fd5b506100eb610200565b6040516100f89190610546565b60405180910390f35b34801561010d57600080fd5b5061012860048036038101906101239190610592565b610247565b005b34801561013657600080fd5b50610151600480360381019061014c91906105d2565b6102d3565b005b34801561015f57600080fd5b5061017a6004803603810190610175919061065d565b61033c565b005b610184610496565b005b34801561019257600080fd5b5061019b610498565b6040516101a89190610748565b60405180910390f35b600047905090565b6000600260003373ffffffffffffffffffffffffffffffffffffffff1673ffffffffffffffffffffffffffffffffffffffff16815260200190815260200160002054905090565b6000600360003373ffffffffffffffffffffffffffffffffffffffff1673ffffffffffffffffffffffffffffffffffffffff16815260200190815260200160002054905090565b81600260003373ffffffffffffffffffffffffffffffffffffffff1673ffffffffffffffffffffffffffffffffffffffff1681526020019081526020016000208190555080600360003373ffffffffffffffffffffffffffffffffffffffff1673ffffffffffffffffffffffffffffffffffffffff168152602001908152602001600020819055505050565b600160003373ffffffffffffffffffffffffffffffffffffffff1673ffffffffffffffffffffffffffffffffffffffff16815260200190815260200160002081908060018154018082558091505060019003906000526020600020016000909190919091505550565b6000805b600160003373ffffffffffffffffffffffffffffffffffffffff1673ffffffffffffffffffffffffffffffffffffffff1681526020019081526020016000208054905081101561044357600360003373ffffffffffffffffffffffffffffffffffffffff1673ffffffffffffffffffffffffffffffffffffffff16815260200190815260200160002054600160003373ffffffffffffffffffffffffffffffffffffffff1673ffffffffffffffffffffffffffffffffffffffff168152602001908152602001600020828154811061041b5761041a61076a565b5b90600052602060002001540361043057600191505b808061043b906107c8565b915050610340565b508015610492578173ffffffffffffffffffffffffffffffffffffffff166108fc479081150290604051600060405180830381858888f19350505050158015610490573d6000803e3d6000fd5b505b5050565b565b6060600160003373ffffffffffffffffffffffffffffffffffffffff1673ffffffffffffffffffffffffffffffffffffffff16815260200190815260200160002080548060200260200160405190810160405280929190818152602001828054801561052357602002820191906000526020600020905b81548152602001906001019080831161050f575b5050505050905090565b6000819050919050565b6105408161052d565b82525050565b600060208201905061055b6000830184610537565b92915050565b600080fd5b61056f8161052d565b811461057a57600080fd5b50565b60008135905061058c81610566565b92915050565b600080604083850312156105a9576105a8610561565b5b60006105b78582860161057d565b92505060206105c88582860161057d565b9150509250929050565b6000602082840312156105e8576105e7610561565b5b60006105f68482850161057d565b91505092915050565b600073ffffffffffffffffffffffffffffffffffffffff82169050919050565b600061062a826105ff565b9050919050565b61063a8161061f565b811461064557600080fd5b50565b60008135905061065781610631565b92915050565b60006020828403121561067357610672610561565b5b600061068184828501610648565b91505092915050565b600081519050919050565b600082825260208201905092915050565b6000819050602082019050919050565b6106bf8161052d565b82525050565b60006106d183836106b6565b60208301905092915050565b6000602082019050919050565b60006106f58261068a565b6106ff8185610695565b935061070a836106a6565b8060005b8381101561073b57815161072288826106c5565b975061072d836106dd565b92505060018101905061070e565b5085935050505092915050565b6000602082019050818103600083015261076281846106ea565b905092915050565b7f4e487b7100000000000000000000000000000000000000000000000000000000600052603260045260246000fd5b7f4e487b7100000000000000000000000000000000000000000000000000000000600052601160045260246000fd5b60006107d38261052d565b91507fffffffffffffffffffffffffffffffffffffffffffffffffffffffffffffffff820361080557610804610799565b5b60018201905091905056fea2646970667358221220026717db68a96b32af9c406e93e502b0c9f421d9e2a0baf04347c324e35af6f864736f6c634300080d0033",
  "immutableReferences": {},
  "source": "// SPDX-License-Identifier: MIT\npragma solidity >=0.5.1 <0.9.0;\n\ncontract Weights {\n  address owner;\n  // int8[] weights;\n  // int8 ownerWeight;\n  // int8 futureWeight;\n\n  constructor() {\n    owner = msg.sender;\n  }\n\n  mapping(address => uint256[]) private weights;\n  mapping(address => uint256) private ownerWeight;\n  mapping(address => uint256) private futureWeight;\n\n\n  function makePayment() payable public {}\n\n  function getBalance() public view returns (uint256) {\n    return address(this).balance;\n  }\n\n  function setWeight(uint256 _ownerWeight, uint256 _futureWeight) public {\n    ownerWeight[msg.sender] = _ownerWeight;\n    futureWeight[msg.sender] = _futureWeight;\n  }\n\n  function pushWeight(uint256 _weight) public {\n    weights[msg.sender].push(_weight);\n  }\n\n  function getLastWeight() view public returns (uint256) {\n    return ownerWeight[msg.sender];\n  }\n\n  function getFutureWeight() view public returns (uint256) {\n    return futureWeight[msg.sender];\n  }\n\n  function getLastWritedWeight() view public returns (uint256[] memory) {\n    // int8 index = weights.length - 1;\n    return weights[msg.sender];\n  }\n\n  function checkWeight(address payable payableAddress) public {\n    bool success = false;\n    for (uint i = 0; i < weights[msg.sender].length; i++) {\n      if (weights[msg.sender][i] == futureWeight[msg.sender]) {\n        success = true;\n      }\n    }\n\n    if (success) {\n      payableAddress.transfer(address(this).balance);\n    }\n  }\n}",
  "sourcePath": "/Users/davey/Documents/GitHub/diet-app/contracts/Weights.sol",
  "compiler": {
    "name": "solc",
    "version": "0.8.13+commit.abaa5c0e.Emscripten.clang"
  },
  "schemaVersion": "3.4.6",
  "updatedAt": "2022-06-26T18:09:43.934Z",
  "devdoc": {
    "kind": "dev",
    "methods": {},
    "version": 1
  },
  "userdoc": {
    "kind": "user",
    "methods": {},
    "version": 1
  }
}