{
  "contractName": "Weights",
  "abi": [
    {
      "inputs": [],
      "stateMutability": "nonpayable",
      "type": "constructor"
    },
    {
      "inputs": [],
      "name": "makePayment",
      "outputs": [],
      "stateMutability": "payable",
      "type": "function",
      "payable": true
    },
    {
      "inputs": [],
      "name": "getBalance",
      "outputs": [
        {
          "internalType": "uint256",
          "name": "",
          "type": "uint256"
        }
      ],
      "stateMutability": "view",
      "type": "function",
      "constant": true
    },
    {
      "inputs": [
        {
          "internalType": "int8",
          "name": "_ownerWeight",
          "type": "int8"
        },
        {
          "internalType": "int8",
          "name": "_futureWeight",
          "type": "int8"
        }
      ],
      "name": "setWeight",
      "outputs": [],
      "stateMutability": "nonpayable",
      "type": "function"
    },
    {
      "inputs": [
        {
          "internalType": "int8",
          "name": "_weight",
          "type": "int8"
        }
      ],
      "name": "pushWeight",
      "outputs": [],
      "stateMutability": "nonpayable",
      "type": "function"
    },
    {
      "inputs": [],
      "name": "getLastWeight",
      "outputs": [
        {
          "internalType": "int8",
          "name": "",
          "type": "int8"
        }
      ],
      "stateMutability": "view",
      "type": "function",
      "constant": true
    },
    {
      "inputs": [],
      "name": "getFutureWeight",
      "outputs": [
        {
          "internalType": "int8",
          "name": "",
          "type": "int8"
        }
      ],
      "stateMutability": "view",
      "type": "function",
      "constant": true
    },
    {
      "inputs": [],
      "name": "getLastWritedWeight",
      "outputs": [
        {
          "internalType": "int8",
          "name": "",
          "type": "int8"
        }
      ],
      "stateMutability": "view",
      "type": "function",
      "constant": true
    },
    {
      "inputs": [
        {
          "internalType": "address payable",
          "name": "payableAddress",
          "type": "address"
        }
      ],
      "name": "checkWeight",
      "outputs": [],
      "stateMutability": "nonpayable",
      "type": "function"
    }
  ],
  "bytecode": "0x608060405234801561001057600080fd5b50336000806101000a81548173ffffffffffffffffffffffffffffffffffffffff021916908373ffffffffffffffffffffffffffffffffffffffff16021790555061062d806100606000396000f3fe60806040526004361061007b5760003560e01c8063ae35e4ea1161004e578063ae35e4ea1461012a578063d8d7970014610153578063f6fc62351461015d578063fee06916146101885761007b565b806312065fe01461008057806328c3d0bd146100ab57806373d3bccd146100d65780639ae0f5d014610101575b600080fd5b34801561008c57600080fd5b506100956101b1565b6040516100a291906103a2565b60405180910390f35b3480156100b757600080fd5b506100c06101b9565b6040516100cd91906103d9565b60405180910390f35b3480156100e257600080fd5b506100eb6101d0565b6040516100f891906103d9565b60405180910390f35b34801561010d57600080fd5b5061012860048036038101906101239190610457565b6101e7565b005b34801561013657600080fd5b50610151600480360381019061014c91906104b0565b6102b2565b005b61015b6102f2565b005b34801561016957600080fd5b506101726102f4565b60405161017f91906103d9565b60405180910390f35b34801561019457600080fd5b506101af60048036038101906101aa91906104f0565b61033e565b005b600047905090565b6000600260009054906101000a900460000b905090565b6000600260019054906101000a900460000b905090565b6000805b60018054905081101561025f57600260019054906101000a900460000b60000b6001828154811061021f5761021e61051d565b5b90600052602060002090602091828204019190069054906101000a900460000b60000b0361024c57600191505b80806102579061057b565b9150506101eb565b5080156102ae578173ffffffffffffffffffffffffffffffffffffffff166108fc479081150290604051600060405180830381858888f193505050501580156102ac573d6000803e3d6000fd5b505b5050565b81600260006101000a81548160ff021916908360000b60ff16021790555080600260016101000a81548160ff021916908360000b60ff1602179055505050565b565b6000600180808054905061030891906105c3565b815481106103195761031861051d565b5b90600052602060002090602091828204019190069054906101000a900460000b905090565b60018190806001815401808255809150506001900390600052602060002090602091828204019190069091909190916101000a81548160ff021916908360000b60ff16021790555050565b6000819050919050565b61039c81610389565b82525050565b60006020820190506103b76000830184610393565b92915050565b60008160000b9050919050565b6103d3816103bd565b82525050565b60006020820190506103ee60008301846103ca565b92915050565b600080fd5b600073ffffffffffffffffffffffffffffffffffffffff82169050919050565b6000610424826103f9565b9050919050565b61043481610419565b811461043f57600080fd5b50565b6000813590506104518161042b565b92915050565b60006020828403121561046d5761046c6103f4565b5b600061047b84828501610442565b91505092915050565b61048d816103bd565b811461049857600080fd5b50565b6000813590506104aa81610484565b92915050565b600080604083850312156104c7576104c66103f4565b5b60006104d58582860161049b565b92505060206104e68582860161049b565b9150509250929050565b600060208284031215610506576105056103f4565b5b60006105148482850161049b565b91505092915050565b7f4e487b7100000000000000000000000000000000000000000000000000000000600052603260045260246000fd5b7f4e487b7100000000000000000000000000000000000000000000000000000000600052601160045260246000fd5b600061058682610389565b91507fffffffffffffffffffffffffffffffffffffffffffffffffffffffffffffffff82036105b8576105b761054c565b5b600182019050919050565b60006105ce82610389565b91506105d983610389565b9250828210156105ec576105eb61054c565b5b82820390509291505056fea2646970667358221220b671703420fd4e121f68b8c10294700a41980161e8c339885b55e5b36f53c22364736f6c634300080d0033",
  "immutableReferences": {},
  "source": "// SPDX-License-Identifier: MIT\npragma solidity >=0.5.1 <0.9.0;\n\ncontract Weights {\n  address owner;\n  int8[] weights;\n  int8 ownerWeight;\n  int8 futureWeight;\n\n  constructor() {\n    owner = msg.sender;\n  }\n\n  function makePayment() payable public {}\n\n  function getBalance() public view returns (uint256) {\n    return address(this).balance;\n  }\n\n  function setWeight(int8 _ownerWeight, int8 _futureWeight) public {\n    ownerWeight = _ownerWeight;\n    futureWeight = _futureWeight;\n  }\n\n  function pushWeight(int8 _weight) public {\n    weights.push(_weight);\n  }\n\n  function getLastWeight() view public returns (int8) {\n    return ownerWeight;\n  }\n\n  function getFutureWeight() view public returns (int8) {\n    return futureWeight;\n  }\n\n  function getLastWritedWeight() view public returns (int8) {\n    return weights[weights.length - 1];\n  }\n\n  function checkWeight(address payable payableAddress) public {\n    bool success = false;\n    for (uint i = 0; i < weights.length; i++) {\n      if (weights[i] == futureWeight) {\n        success = true;\n      }\n    }\n\n    if (success) {\n      payableAddress.transfer(address(this).balance);\n    }\n  }\n}",
  "sourcePath": "/Users/davey/Documents/GitHub/diet-app/contracts/Weights.sol",
  "compiler": {
    "name": "solc",
    "version": "0.8.13+commit.abaa5c0e.Emscripten.clang"
  },
  "schemaVersion": "3.4.6",
  "updatedAt": "2022-04-05T06:34:06.014Z",
  "networkType": "ethereum",
  "devdoc": {
    "kind": "dev",
    "methods": {},
    "version": 1
  },
  "userdoc": {
    "kind": "user",
    "methods": {},
    "version": 1
  }
}